:020000040800F2
:10000000C8B901209502000885160008E715000808
:10001000831600085D090008C518000800000000EC
:100020000000000000000000000000008916000829
:10003000CD09000800000000871600088B16000894
:10004000AF020008AF020008AF020008AF020008CC
:10005000AF020008AF020008AF020008AF020008BC
:10006000AF020008AF020008AF020008AF020008AC
:10007000AF020008AF020008AF020008AF0200089C
:10008000AF020008AF020008AF020008AF0200088C
:10009000AF020008AF020008AF020008AF0200087C
:1000A000AF020008AF020008AF020008AF0200086C
:1000B000AF020008AF020008AF020008AF0200085C
:1000C000AF020008AF020008AF020008AF0200084C
:1000D000AF020008AF020008AF020008AF0200083C
:1000E000AF020008AF020008AF020008AF0200082C
:1000F000AF020008AF020008AF020008AF0200081C
:10010000AF020008AF020008AF020008AF0200080B
:10011000AF020008AF020008AF020008AF020008FB
:10012000AF020008AF020008AF020008AF020008EB
:10013000AF020008AF020008AF020008AF020008DB
:10014000AF020008AF020008AF020008AF020008CB
:10015000AF020008AF020008AF020008AF020008BB
:10016000AF020008AF020008AF020008AF020008AB
:10017000AF020008AF020008AF0200080000000054
:10018000AF020008AF020008AF020008AF0200088B
:10019000AF020008AF020008AF020008AF0200087B
:1001A000AF020008AF020008AF02000800F002F83A
:1001B00000F060F80AA090E8000C82448344AAF1A1
:1001C0000107DA4501D100F055F8AFF2090EBAE89F
:1001D0000F0013F0010F18BFFB1A43F0010318477B
:1001E0008CCA0A00ACCA0A000A444FF0000C10F88E
:1001F000013B13F0070408BF10F8014B1D1108BFA5
:1002000010F8015B641E05D010F8016B641E01F844
:10021000016BF9D113F0080F1EBF10F8014BAD1C94
:100220000C1B09D16D1E58BF01F801CBFAD505E0B2
:1002300014F8016B01F8016B6D1EF9D59142D6D30C
:10024000704700000023002400250026103A28BF34
:1002500078C1FBD8520728BF30C148BF0B60704738
:100260001FB508F012FA9DE8030000F089FA1FBDDF
:1002700010B510BD00F0F0FA1146FFF7F1FF05F0E0
:10028000C7FE00F00EFB03B4FFF7F2FF03BC00F063
:100290003FFB00000948804709480047FEE7FEE7AA
:1002A000FEE7FEE7FEE7FEE7FEE7FEE7FEE7FEE726
:1002B00004480549054A064B7047000031170008FD
:1002C000AD010008C8A90120C8B90120C8B10120AA
:1002D000C8B1012070B5064600F036FA056806F18F
:1002E0000B0020F00704B4429CBF002070BD2B46D9
:1002F0006A68BAB11068A04210D304F108018842BC
:100300003CBF5068586007D35168101941601168AC
:10031000091B016058601460101D70BD13465268BF
:10032000002AE7D12146284600F016FA0028DED13F
:1003300070BD70B50446051F00F006FA0068002C79
:1003400014BF446870BD002C18BFAC423CBF2046AF
:100350006468F8D301680A18AA4218BF456003D13F
:100360002A6805461144016028684119A1421CBF52
:100370006C6070BD6168696021680844286070BD68
:1003800053EA020C00F069802DE9F04B4FF00006B3
:10039000002B1FBFB3FA83F503FA05F424FA05F620
:1003A0005E4012BF1643B2FA82F502FA05F4C5F1B7
:1003B00020051EBF22FA05FC44EA0C04203556EA4B
:1003C000044C4FEA144418BF641C4FF000084FF06F
:1003D0000009904271EB030C39D3002919BFB1FA1F
:1003E00081F701FA07F6B0FA80F700FA07F6C7F1CD
:1003F00020071EBF20FA07FC46EA0C062037B6FB92
:10040000F4FCA7EB0507103F07F01F0BCBF120060C
:100410000CFA0BFB2CFA06F644BFB3460026202F3D
:10042000A4BF5E464FF0000B5BEA060C08BF4FF01E
:10043000010B19EB0B09ABFB027C48EB0608C01B58
:1004400006FB02CC0BFB03CC71EB0C01C1E70B46A6
:10045000024641464846BDE8F08B13B54FF0000018
:100460004FF00001AFF30080BDE81C407047B2F1CF
:1004700020030AD5C2F1200301FA02F120FA03F3A6
:1004800000FA02F041EA0301704700FA03F14FF06D
:100490000000704740EA010310B59B070FD1042A02
:1004A0000DD310C808C9121F9C42F8D020BA19BA3F
:1004B000884201D9012010BD4FF0FF3010BD1AB1A4
:1004C000D30703D0521C07E0002010BD10F8013BF9
:1004D00011F8014B1B1B07D110F8013B11F8014B20
:1004E0001B1B01D1921EF1D1184610BD10B5431C43
:1004F00002E010F8011B71B18107FAD14FF001320F
:1005000002C88C1A8C4314EAC211F9D0C01A0A0628
:1005100003D0C01E10BDC01A10BD0A0401D0801E39
:1005200010BD0902FCD0401E10BD40EA010370B5A9
:100530009B072ED14FF00136042A2AD308C810C9D0
:100540009D1B9D43121F15EAC61517D0D8B2E1B204
:10055000401A50EA056110D198B2A1B2401A50EA8F
:1005600005410AD123F07F4024F07F41401A50EA30
:10057000052102D1180EA0EB146070BDA342DBD0A0
:1005800018BA21BA884201D9012070BD4FF0FF305E
:1005900070BD0AB9002070BD10F8013B11F8014B85
:1005A00063B1A3420AD1521E08D010F8013B11F8E2
:1005B000014B1BB1A34201D1521EEDD1181B70BDDE
:1005C000032A40F2308010F0030C00F0158011F87F
:1005D000013BBCF1020F624498BF11F801CB00F857
:1005E000013B38BF11F8013BA2F1040298BF00F8AB
:1005F00001CB38BF00F8013B11F0030300F0258068
:10060000083AC0F0088051F8043B083A51F804CB8E
:10061000A0E80810F5E7121D5CBF51F8043B40F854
:10062000043BAFF30080D20724BF11F8013B11F85F
:1006300001CB48BF11F8012B24BF00F8013B00F8A3
:1006400001CB48BF00F8012B704710B5203AC0F02D
:100650000B80B1E81850203AA0E81850B1E81850C3
:10066000A0E81850BFF4F5AF5FEA027C24BFB1E800
:100670001850A0E8185044BF18C918C0BDE8104071
:100680005FEA827C24BF51F8043B40F8043B08BF7A
:100690007047D20728BF31F8023B48BF11F8012B41
:1006A00028BF20F8023B48BF00F8012B70474FF0ED
:1006B00000020429C0F0128010F0030C00F01B802F
:1006C000CCF1040CBCF1020F18BF00F8012BA8BF3D
:1006D00020F8022BA1EB0C0100F00DB85FEAC17C01
:1006E00024BF00F8012B00F8012B48BF00F8012BB4
:1006F00070474FF0000200B51346944696462039E5
:1007000022BFA0E80C50A0E80C50B1F12001BFF4CA
:10071000F7AF090728BFA0E80C5048BF0CC05DF830
:1007200004EB890028BF40F8042B08BF704748BF7E
:1007300020F8022B11F0804F18BF00F8012B7047F2
:100740007047704770470000004870476CA901204F
:10075000704770477047704738B504460A46002016
:100760006946AFF30080002808BF38BD02460099F3
:10077000204600F04FF8012038BD012000F064B899
:10078000F8B5AFF30080054600200C46102000BFEE
:100790000646A819A0420DD9324669460020AFF39B
:1007A0000080070008BF00F04FF80098A04218BF73
:1007B0000546C419FFF7C8FF05600746F01D20F085
:1007C00007004619284600F00AF8B44208BFF8BDF1
:1007D000A21B31463868BDE8F84000F01BB8002184
:1007E0000160C0E9011070471020704710B500F09B
:1007F0000DF8006810BD10B5044600F007F804605D
:1008000010BD00000048704764A9012000487047EF
:1008100064A90120034640688C46002818BF88421E
:100820003CBF03464068F8D318681844884207D094
:100830000CF1030020F00700001D411A521A014676
:10084000081D0A60FFF775BD10B500F039F8BDE866
:10085000104000F02FB870477546FFF7D3FFAE4643
:1008600005006946534620F00700854618B020B5BC
:10087000FFF71EFDBDE820404FF000064FF00007D7
:100880004FF000084FF0000B21F00701AC46ACE838
:10089000C009ACE8C009ACE8C009ACE8C0098D46A5
:1008A000704710B50446AFF300802046BDE8104005
:1008B000FFF7E9BC002801D000F02AB8704700001B
:1008C00010B5012805D0002103A000F027F8012071
:1008D00010BD09A1F8E7000053494752544D454D5A
:1008E0003A204F7574206F662068656170206D65D1
:1008F0006D6F7279000000003A2048656170206DCC
:10090000656D6F727920636F7272757074656400C3
:1009100001491820ABBEFEE72600020070B505466F
:100920000C460A2000E06D1C00F011F835B1287863
:100930000028F8D102E0641C00F009F814B1207816
:100940000028F8D1BDE870400A20AFF3008008B558
:1009500069468DF800000320ABBE08BDFEE700002D
:10096000144810B5016821F00101016001F065FA39
:1009700011490968114BC1F30221114A01240429CC
:100980000BD010490C600C68002CFCD10D490839C3
:100990000B60096891420AD0FEE70B498C608C68B5
:1009A000002CFCD10B600968914200D0FEE701F0F9
:1009B000AFFA10BD002000E0002004E0C2A507F45B
:1009C000CDB5E8B5084C025800300240704772B609
:1009D000FEE710B5040002D0607910B106E00120F6
:1009E00010BD00202071204600F004F80120607145
:1009F000002010BD08B500680649884208D10648A5
:100A0000016841F480510160006800F4805000905A
:100A100008BD0000003002403038024070B5044686
:100A200000F03AF90546601C02D0044800780444FE
:100A300000F032F9401BA042FAD370BD44090020F7
:100A40002DE9F84FDFF8F8A1002201240AF1040B88
:100A500003254FF00F090BF1040E00BF0B6804FAD9
:100A600002F63340B34270D10F7907F00307012F2C
:100A700001D0022F16D187684FEA420805FA08FC18
:100A800027EA0C07D1F80CC00CFA08FC4CEA070C5A
:100A9000C0F808C04768B7430E79C6F30016964001
:100AA0003E4346600E79F643B6070AD0C7684FEA60
:100AB000420C05FA0CF6B7438E6806FA0CF63E4374
:100AC000C6600E7906F00306022E10D1D60800EBA0
:100AD0008608D8F8206057074FEAD76C09FA0CF758
:100AE000BE430F6907FA0CF73743C8F82070066851
:100AF0004FEA420C05FA0CF7BE430F7907F00307E3
:100B000007FA0CF7374307604E6816F4403F1CD0D5
:100B10004C4E376847F480473760366822F0030749
:100B200006F480460096484E07EB060CDCF8086891
:100B300097073F0F09FA07F826EA0806DFF80C8145
:100B4000404503D14FF0000841E072E0DFF800813A
:100B5000404502D14FF0010839E0DFF8F880404508
:100B600002D14FF0020832E0DFF8EC80404502D1BC
:100B70004FF003082BE0DFF8E480404502D14FF04E
:100B8000040824E0DFF8D880404502D14FF0050882
:100B90001DE0DFF8D080404502D14FF0060816E096
:100BA000DFF8C480404502D14FF007080FE0DFF8BE
:100BB000BC80404502D14FF0080808E0DFF8B08063
:100BC000404502D14FF0090801E04FF00A0808FA49
:100BD00007F848EA0608CCF80888DAF800605746B3
:100BE000D1F804C09E435FEACC3C00D51E433E6072
:100BF000DBF800605F46D1F804C09E435FEA8C3C9E
:100C000000D51E433E60DEF800607746D1F804C090
:100C10009E435FEACC2C00D51E433E60084F0C3744
:100C20003E68D1F804C09E435FEA8C2C00D51E4379
:100C30003E60521C102AFFF411AFBDE8F88F00008F
:100C4000003C0140443802400030014000000240B6
:100C50000004024000080240000C02400010024064
:100C60000014024000180240001C02400020024014
:100C70000024024002480068C0F30B0070470000E7
:100C8000002004E000487047000D0701014800689B
:100C9000000C7047002004E00148806870470000A5
:100CA000440900200248816802781144816070473D
:100CB000440900200B4810B5016841F4007101603F
:100CC000016841F480610160016841F48071016054
:100CD000032000F061F80F2000F006F800F024F87F
:100CE000002010BD003C024070B50D4D04464FF48D
:100CF0007A712878B1FBF0F00A490968B1FBF0F08D
:100D000000F03CFB48B9102C07D200222146501EAF
:100D100000F022F800206C6070BD012070BD000062
:100D200044090020500900200A4808B5016841F430
:100D300080410160006800F4804000900548001F79
:100D4000016841F080510160006800F0805000901F
:100D500008BD000044380240F0B40E4B1B680C463E
:100D6000C3F30223C3F10705042D00D90425191D7F
:100D7000072901D2002300E0DB1E012606FA05F157
:100D8000491E214099409E40761E16403143F0BCDA
:100D900000F0ACBD0CED00E0064900F00702086869
:100DA0004FF6FF03184040EA0220034A1043086050
:100DB000704700000CED00E00000FA052DE9F84353
:100DC0001748016841F0805101600068154F00F03C
:100DD0008050012600903E64FFF75EFF05464FF409
:100DE0007A78114C05E000BFFFF756FF401B4045E5
:100DF0000DD86068C003F7D57E64FFF74DFF054648
:100E0000464607E0FFF748FF401BB04202D90320E7
:100E1000BDE8F88360688003F4D50020F8E700009F
:100E20004038024000000E42007000402DE9F047BB
:100E30000E46050065D0DFF81481D8F80000F7B23F
:100E400000F00F00B04207D288F80070D8F8000018
:100E500000F00F00B04254D128683D4C810712D5F4
:100E6000400703D5206840F4E05020602878000750
:100E700003D5206840F4604020602068A96820F015
:100E8000F000084320602878C0072DD030496868FA
:100E90000839012812D0022813D0032811D009687C
:100EA000890700292DDA216821F00301014321601F
:100EB000FFF7F2FE814641F2883A0EE009688903A5
:100EC000EFE709688901ECE7FFF7E6FEA0EB09010F
:100ED000514502D90320BDE8F0872068696800F019
:100EE0000C00B0EB810FEFD1D8F80010404601F0B4
:100EF0000F01B14207D90770006800F00F00B0423F
:100F000001D00120E7E72878400705D52068E96887
:100F100020F4E050084320602878000706D52068B8
:100F2000296920F4604040EAC100206000F03EF8EA
:100F30002168084AC1F30311515CC84006490860A2
:100F400006480068FFF7D0FE0020C4E7003C0240DE
:100F500008380240BCCA0A0850090020480900208D
:100F60000148006870470000500900200448054906
:100F700000680968044AC1F38221515CC840704787
:100F80005009002008380240CCCA0A080448054924
:100F900000680968044AC1F34231515CC840704797
:100FA0005009002008380240CCCA0A08154810B57C
:100FB000006810F00C02144813D01449042A0FD012
:100FC000082A0ED10F4C241F2268236802F03F022A
:100FD0005B0207D52068C0F38810A0FB010106E082
:100FE000084610BD2168C1F38811A1FB0001002350
:100FF000FFF7C6F92168C1F30141491C4900B0FB64
:10100000F1F010BD083802400024F40040787D0162
:101010002DE9F84F04006ED02078DFF84C93C0071C
:10102000A9F104054AD009F104000168C1F3810166
:10103000012908D00068C0F3810002280AD1D9F83C
:101040000000400206D52868800337D56068002874
:10105000E1D033E06068B0F5803F10D0B0F5A02F4C
:10106000286810D020F480302860286820F4802080
:1010700028606068A8B1FFF70FFE06460DE02868FB
:1010800040F48030F4E740F480202860F7E700BFA8
:10109000FFF702FE801B642873D828688003F7D509
:1010A0000CE0FFF7F9FD064605E000BFFFF7F4FD91
:1010B000801B6428F0D828688003F7D42078DFF8F4
:1010C000AC8280074FF0000A3ED5A748001D01689A
:1010D00011F00C0F08D00068C0F3810002280BD17A
:1010E000D9F80000400207D42868800716D5E068C8
:1010F000012800D112E033E1E068B8B10120C8F85E
:101100000000FFF7C9FD064605E000BFFFF7C4FD7C
:10111000801B0228C0D828688007F7D52868216975
:1011200020F0F80040EAC10028600DE0C8F800A0F7
:10113000FFF7B2FD064604E0FFF7AEFD801B022874
:101140001FD828688007F7D42078000722D5864F5B
:1011500087486169703771B101210160FFF79CFD1B
:10116000064604E0FFF798FD801B022809D838687E
:101170008007F7D50EE0C0F800A0FFF78DFD06460A
:1011800005E082E0FFF788FD801B02287DD83868E3
:101190008007F7D42078400768D5DFF8CCB1002766
:1011A0000BF13C0BDBF80000C0000BD4DBF80010A7
:1011B00041F08051CBF80010DBF80000012700F06F
:1011C000805000906B4E3068C00510D4306840F4F9
:1011D00080703060FFF760FD009005E0FFF75CFD78
:1011E0000099401A022850D83068C005F6D55E4EE6
:1011F000A0686C3601280FD00528306810D020F088
:1012000001003060306820F004003060A068B8B1A0
:10121000FFF742FD00900FE0306840F00100F4E776
:1012200040F004003060F7E7FFF736FD0099411AFF
:1012300041F28830814266D830688007F4D50EE0EC
:10124000FFF72AFD009007E0FFF726FD0099411AFD
:1012500041F28830814256D830688007F4D42FB1EB
:10126000DBF8001021F08051CBF80010A069C8B362
:101270003D49091D0968C1F3810102294AD00228AC
:10128000504607D0C8F8600000E03CE0FFF704FDDE
:1012900004463BE04746C8F86000FFF7FDFC064601
:1012A00005E000BFFFF7F8FC801B02282BD8286858
:1012B0008001F7D4D4E907010843A16A2E4A4908FE
:1012C00002EB0141626A41EA8211084394F82C1052
:1012D00040EA0161C9F8001001203866FFF7DCFC24
:1012E000044606E03EE000BFFFF7D6FC001B0228E4
:1012F00009D828688001F7D534E000BFFFF7CCFC9F
:10130000001B022802D90320BDE8F88F286880015D
:10131000F4D427E00128F7D0D9F80000E26900F4FE
:10132000800191421CD1226A00F03F01914217D105
:1013300047F6C071626A0140B1EB821F10D1A26A08
:101340004FF0FF3300F4403103EB5202B1EB024F98
:1013500006D194F82C1000F07060B0EB016F01D052
:101360000120D1E70020CFE70438024000004742C7
:10137000800E4742007000400000FFFF10B5401E85
:10138000B0F1807F01D3012010BD4FF0E0246061F7
:101390000F21601700F0AAFA0020A0610720206149
:1013A000002010BD70B5040004D094F83D00002565
:1013B00010B106E0012070BD84F83C50204600F0DA
:1013C00023F8242084F83D002068C16821F40051EE
:1013D000C160204600F0B4F92068016921F4904111
:1013E00001612068416921F02A0141612068C168DA
:1013F00041F40051C1602564202084F83D0084F848
:101400003E00002070BD000010B586B004461421D7
:101410006846FFF76EF914492068884221D11348C5
:101420000021026842F010020260006800F0100023
:1014300005900E481438026842F00102026000680C
:1014400000F0010005904FF4C06000900220CDE94B
:101450000101032003900720049069460448FFF728
:10146000EFFA06B010BD0000001001404438024001
:10147000000002402DE9F84F044690F83E009A46DD
:1014800016460D46202853D1FDB1F6B194F83C0024
:1014900001284DD0012084F83C0000272764222039
:1014A00084F83E002763FFF7F7FBA6858146E685B3
:1014B000A0684FF48058404501D1206940B12E46C4
:1014C0005FF0000584F83C7027E00120BDE8F88F4C
:1014D0000026F7E74B46002220212046CDF800A049
:1014E00000F0B4F908B10320F0E726B1A068404548
:1014F0001BD038B108E020684068C0F3080025F828
:10150000020B07E0206980B12068406800F07F008E
:1015100006F8010BE08D401EE085E08D0028D9D152
:10152000202084F83E000020D0E720684068EFE7E4
:101530000220CBE72DE9F843044690F83D001F4612
:1015400016460D4620284CD1C5B1BEB194F83C00DA
:10155000012846D0012084F83C004FF00008C4F870
:101560004080212084F83D00FFF796FBA684814649
:10157000E684A068B0F5805F03D004E00120BDE8F8
:10158000F883206928B12E465FF0000584F83C807E
:101590000EE00026FAE78021204600F057F9A0B9B6
:1015A000AEB116F8010B21684860E08C401EE08463
:1015B000E08C4B464FF0000200970028EBD14FF033
:1015C0004001204600F042F930B10320D7E735F85A
:1015D000020BC0F30800E6E7202084F83D0000205D
:1015E000CDE70220CBE7FEE7074910B505480860C4
:1015F0000846FFF7EEF9002803D0BDE81040FFF7DA
:10160000E6B910BD003002403C090020094808B589
:10161000016841F080010160016801F080010091E2
:10162000016841F001010160006800F001000090D4
:1016300008BD0000303802400C4810B50A4901606E
:101640004FF4E1314160002181600C22C160C0E9AA
:1016500004128161C161FFF7A5FE002803D0BDE837
:101660001040FFF7B4B910BD0010014020A90120BF
:1016700010B5FFF7E1FFBDE8104002F04FB902F0EE
:101680007FB9FEE7FEE770477047FFF70BBB00002E
:1016900030B593B030216846FFF72BF814210CA821
:1016A000FFF727F820480025016841F080510160CC
:1016B000006800F0805011901C48016841F44041DE
:1016C00001600068022400F4404011900120039062
:1016D00010200490009406940820CDE90750B4200F
:1016E000CDE9090404200B906846FFF791FC08B18E
:1016F00072B6FEE7FFF762FB08B172B6FEE70CA90F
:101700000F2081E831004FF4A0500F904FF480502B
:10171000109005210CA8FFF789FB002801D072B6B4
:10172000FEE713B030BD00004038024000700040BA
:101730000248016841F470010160704788ED00E0E3
:1017400070B5044600680169E26821F44051114314
:1017500001612169A068E269084361691143084396
:101760002168CA6849F20C639A430243CA60206840
:101770004169A26921F440711143416131492068F6
:10178000884202D03049884202D1FFF7FFFB01E0D6
:10179000FFF7ECFBE2690023192164253226B2F53C
:1017A000004F626828D0A0FB0101930F9200FEF762
:1017B000E7FD0146B0FBF5F06FF01802504301EB76
:1017C000800006EB0010B0FBF5F000F0F002B1FB7A
:1017D000F5F002EB0012B1FBF5F06FF0180358437F
:1017E00001EB800006EB0010B0FBF5F000F00F00FD
:1017F00021681044886070BDA0FB010192185B4114
:10180000FEF7BEFD0146B0FBF5F00201B1FBF5F0BD
:101810006FF01803584301EB800006EBC000B0FBEB
:10182000F5F000F0F80002EB4002B1FBF5F0584390
:1018300001EB800006EBC000B0FBF5F000F0070004
:10184000D6E7000000100140001401402DE9F041EE
:10185000984617460E460446069D27E0681C25D08C
:101860002DB1FFF719FAA0EB0800A8421ED9206895
:101870000C3050E8001F21F4D07140E80012002A1B
:10188000F5D12068143050E8001F21F0010140E834
:101890000012002AF5D1202084F83D0084F83E0093
:1018A000002084F83C000320BDE8F0812068006837
:1018B00036EA000004D00020B842CFD00020F3E781
:1018C0000120F9E7FEE74100080218BF04200A0ED4
:1018D00018BF40F001004FF07F4232EA010108BF1B
:1018E00040F00200012808BF052070470907090ED3
:1018F000002804DB00F1E02080F80014704700F0BD
:101900000F0000F1E02080F8141D70479FED3C0AA5
:1019100063E000BF92ED003A91ED004AD2ED012A5A
:10192000D1ED013A04EE030A92ED022A91ED021A7A
:10193000D2ED030AD1ED031A91ED044A03EEA20A97
:10194000D2ED043A92ED053AD1ED052A01EE020AF4
:1019500092ED062A92ED071A01EEA00AD1ED061AC1
:10196000D1ED070A04EE230AD2ED083A91ED084AB8
:1019700002EE830AD2ED092A91ED093A01EE820ABC
:1019800092ED0A2AD1ED0A1A00EE810A92ED0B1AA5
:10199000D1ED0B0A04EE230A91ED0C4AD1ED0D3A7C
:1019A00003EE220A92ED0C3AD2ED0D2A01EE820AE4
:1019B00092ED0E2AD1ED0F1A00EE810A91ED0E1A6A
:1019C000D2ED0F0A40314032103B04EE030A03EE21
:1019D000A20A01EE020A01EEA00A102B9AD206E03A
:1019E000F1EC010A5B1EB2EC011A00EE810A002B39
:1019F000F6D1D0ED000A30EE800A80ED000A704783
:101A00000000000010B510EE104A4FF01940684970
:101A1000002200EB44002DED028B884257D8DFED09
:101A2000650A14F0004F60EE200A14BFBEEE001AE3
:101A3000B6EE001A71EE200AFDEEE00A10EE900AF2
:101A400000EE900AF8EEE00A9FED5B1A00EEC10A84
:101A50009FED5A1A00EEC10ADFED590A9FED591A9F
:101A600000EE201ADFED580A40EE010A9FED571AEA
:101A7000574B00F0030100EE201A21EE000A7B44D0
:101A800003EB8103D3ED000A524B7B4403EB81034C
:101A900093ED001A504B41EE000A7B4403EB8101A9
:101AA000801091ED000A70EE800AEABB00EE100A89
:101AB000B8EEC01ADFED491A9FED490ABDEC028B62
:101AC00001EE210ABCEEC00A20EE200A10BD4FF044
:101AD000FF40A0431BD04FF0CE40B0EB440F82BF7D
:101AE000B7EE000ABDEC028B10BD3E48B0EB440FD0
:101AF00028BF012293D20220FEF77DFE14F0004F92
:101B000015D0BDEC028BBDE8104000F07BB814F599
:101B1000000F02BF9FED340ABDEC028B10BDBDEC7F
:101B2000028BBDE8104000E007E000F05FB8BDECBC
:101B3000028BBDE8104000F05DB800EBD073591087
:101B40004FF07E5202EBC15100EE101AA0EB630081
:101B500002EBC05060EE200A00EE100A20EE208A50
:101B600018EE100A88B118EE100AB0F1FF4F15D028
:101B700018EE100AFFF7A7FE042808BF00F042F88D
:101B8000B0EE480ABDEC028B10BD0220FEF733FE1A
:101B9000BDEC028BBDE8104000F034B80220FEF727
:101BA0002AFEBDEC028BBDE8104000F023B8000017
:101BB0000000501E3BAAB8400070313EF4FD0537CE
:101BC00012BB2A3D12BB2A3EFFFFFF3EFFFF7F3FB5
:101BD000CEB00A00D2B00A00A2B00A000000004B4A
:101BE00000007E4E0000A0850000000030EE000ADC
:101BF000704700009FED020A20EE000A70470000C7
:101C0000000000709FED020A20EE000A70470000FD
:101C100000000010F0B5059D25F0010403EB8406DB
:101C20009FED460AEF085AE051F8044BD3ED002A25
:101C300004F0FF0C4FEA1C1E02EB8E0E0CF00F0C92
:101C40009EED002A02EB8C0C02EE220ADCED001A5B
:101C500093ED012AC4F3072C4FEA1C1E02EB8E0EF3
:101C600001EE820A9EED001AD3ED021A0CF00F0C61
:101C700002EB8C0CD3ED042A01EE210ADCED000A04
:101C800093ED031AC4F3074C4FEA1C1E02EB8E0EB1
:101C900000EE810A9EED002A0CF00F0C02EB8C0C7A
:101CA000240EDCED001A02EE220A93ED052A4FEA1B
:101CB000141C02EB8C0C04F00F049CED001A01EED6
:101CC000820AD3ED061A02EB8404D4ED000A01EE79
:101CD000210A93ED071A20337F1E00EE810A002FA0
:101CE000A2D115E011F8014B93ED001A270902EB80
:101CF000870704F00F04D7ED000A02EB840400EE1E
:101D0000810AD4ED000A93ED011A083300EE810A2E
:101D1000B342E7D3EC0709D0097893ED001A09091B
:101D200002EB8101D1ED000A00EE810AD0ED000A3C
:101D300030EE800A80ED000AF0BD000000000000D7
:101D4000F0B59FED380A059DEE0851E051F8044BBF
:101D5000D3ED002AE7B202EB8707D7ED001AC4F3F0
:101D6000072702EB870701EEA20A97ED002AD3EDC1
:101D7000011AC4F3074702EB8707240E02EE210A7B
:101D800097ED001AD3ED021A02EB8404D3ED042A76
:101D9000D4ED000A01EE210A93ED031A51F8044B29
:101DA000E7B202EB870700EE810A97ED002AC4F341
:101DB000072702EB8707D7ED001A02EE220A93ED00
:101DC000052AC4F3074702EB8707240E97ED001A94
:101DD00001EE820AD3ED061A02EB8404D4ED000A68
:101DE00001EE210A93ED071A2033761E00EE810AD8
:101DF000002EABD105F007040BE000BF11F8015B2A
:101E0000641E02EB8505B3EC011AD5ED000A00EE65
:101E1000810A002CF2D1D0ED000A30EE800A80ED6C
:101E2000000AF0BD0000000010B541690446884773
:101E30002069A04200D1002010BD012070470000A1
:101E40002DE9F04F002799B0894604463E46B84632
:101E500046E0A068C6EBC602416801EB82010E9124
:101E6000806810A900EBC60A28480D91AA68406A4C
:101E7000120A62F31F2001901C2105A8D5F80CB0AE
:101E8000FEF737FCA869006801F050FE0590A869CC
:101E9000806806905FEA0A0008D0C0F800802968D0
:101EA000416029B1498819B1012102E0404603E0AF
:101EB0000021016001B900200790A86901991C2246
:101EC0004068CDE90A1B099005A90D98FEF7BDFBF6
:101ED0001C2210A90E98FEF7B8FB7F1CBFB2761C1F
:101EE0000CB1208800E00020B04205D9606818B12C
:101EF00050F82650002DACD11FB1A0684168C9F838
:101F0000001019B03846BDE8F08F0000D4CA0A08A6
:101F10007047000070B505460C46488869888842BD
:101F200002D9AAB1002070BD92B100260CE000BF1A
:101F30006168C6EBC6006A6801EB800102EB8000B5
:101F40001C22FEF782FB761C6088B042F0D801E0CC
:101F5000606868606088688020882880012070BD83
:101F600030B500B3F9B1F2B15268E2B10F4C136869
:101F7000A34203D00260012913D014E00023121DF4
:101F800007E000BF52F82350A54204D040F8235088
:101F90005B1C8B42F6D38B4205D152F82300A04242
:101FA00001D1012030BD002030BD0000DECAFAA101
:101FB00070B50D46060014461AD0CCB1104601F09B
:101FC0005BFE00B16088A84212D10023042109E021
:101FD000C3EBC302606801EB8202805820B146F86F
:101FE00023005B1CAB42F3D3AB4201D1012070BD97
:101FF000002070BD0349884201D1012070470020B4
:1020000070470000DECAFAA12DE9FE4F92468946CC
:10201000040003D0A08D20B1256B03E00020BDE8B3
:10202000FE8F00250020E082A082207BC043800735
:1020300002D030221121DCE0B9F1000F61D0D5B31C
:102040002888C0B3D9F818000026D0F8008056E0E0
:10205000A868006800EB0610019052D058B3C6EB98
:10206000C600029009EB80000121009001F016FEED
:10207000DBF81830596888421AD80098DBF80C2031
:102080008069D768D0F80CC0674511D19768D0F83F
:1020900008C067450CD152684068824208D1186870
:1020A00001F035FD0746584603F036FF874203D25C
:1020B000182212219DE024E0DBF81800006801F0EE
:1020C00035FD029920F07E4259F8210020F07E4033
:1020D000824201D01922ECE70098406888B100984C
:1020E0008069006878B14146404500D20846804684
:1020F000DDE900105A4600F08FF8761C2DB12888D3
:1021000004E01722D5E72122D3E70020B04206D908
:10211000686820B150F826B0BBF1000F98D1BAF131
:10212000000F74D0A08D012806D9256B0C3503D083
:10213000288808B1002658E0182259E0A8680068ED
:1021400000EB061B3BD0BBF1000F38D0C6EBC6003E
:1021500001900AEB80000121009001F09FFDD9F869
:10216000183059688842E7D80098D9F80C2080695F
:10217000D768D0F80CC06745DED19768D0F808C0A2
:102180006745D9D1526840688242D5D1186801F0BC
:10219000BEFC0746484603F0BFFE8742CCD3D9F8C1
:1021A0001800006801F0C2FC20F07E4201985AF845
:1021B000200020F07E40824203D0192218E017222E
:1021C00016E0009840680028F9D0009880690068FF
:1021D00068B14146404500D2084680464A465846C6
:1021E000009900F019F8761C3DB1288806E02122FC
:1021F0001321204602F06DFD10E70020B04206D901
:10220000686820B150F82690B9F1000F96D1A4F873
:1022100014804FF0010002E770B504460E461546E3
:10222000104603F079FE0146A060B069006848439B
:10223000E06071686160726810442060A86902689B
:10224000920007D4D0E90223D21A11448160A9690F
:102250006068C86070BD70B50546002621E0A968B9
:102260008369096801EB06141968890005D5D4E96A
:1022700001129868FEF7A4F908E0D3E90212891A5E
:1022800062681144996080696168C160D4E90101A4
:10229000084460602168884201D3E068081A761C0F
:1022A00060600DB1288800E00020B04206D968685F
:1022B000002803D050F826000028D0D170BD2DE9A9
:1022C000F041054600262BE0A968096801EB0614D9
:1022D00081690A6892000FD5A26889686068FEF774
:1022E0006FF9D4E90110014461602068814201D393
:1022F000E168411A616012E0D4E9011211446160A1
:102300002268914201D3E168511A61608269D2E981
:102310000237DB1B1944916080696168C160761CDB
:102320000DB1288800E00020B04206D96868002876
:1023300003D050F826000028C6D1BDE8F0817FB553
:1023400014004FF0000304D0226812B1A2891AB120
:1023500004E0012004B070BD4FF48073E5896D1E68
:10236000954201D143F40073002530B1012813D008
:10237000022814D0032829D042E0207AC0073CD09C
:10238000ADF800204888ADF804000888ADF80200D8
:10239000886943F001012AE02161A58130E02161D3
:1023A000207A80072CD590B2ADF800004888ADF8AF
:1023B00004000888ADF80200886943F00201CDE905
:1023C0000250D4E900306A46984719E0207A400765
:1023D00013D5ADF80020206943F004014088ADF822
:1023E000040020690088ADF80200206980696A460F
:1023F000CDE90250D4E900309847A089401CA08163
:102400000020A7E713B506480078002806D04FF053
:10241000FF33012201A90348FFF78CF81CBD00001F
:102420002809002020A901202DE9F04F3F242DED9F
:10243000068B91B08146B0EE409AF0EE609A00258E
:102440009FED4C0B51EC190B53EC102B05F058FE83
:1024500001D2012000E0002082469FED48ABB7EE9C
:10246000008A0020B2EE040AD9F8047003E000BF2D
:1024700028EE008A401C8742FADCBAF1000F05D032
:1024800051EC190B05F024FC41EC190B18EE100A65
:1024900006F05AF841EC100B51EC1A0B53EC102BD0
:1024A00005F0D6FC53EC192B05F01EFC41EC190B82
:1024B00018EE100A06F048F853EC192B05F05CFEF4
:1024C00006F0E8F806464FF02E0BE8460A220023F5
:1024D0003046FDF755FF0A22A0FB0223B21A303224
:1024E00008F8042005F101050646A4F10104AF42F5
:1024F00003D108F804B0641E6D1C56EA0100E5D152
:102500003020AF4204D908F80400641E6D1CF8E7BF
:10251000AF4203D108F804B0641E6D1C7F1CAF42AB
:1025200003D108F80400641E6D1CBAF1000F04D03A
:102530002D2008F80400641E6D1CD9F8000020212D
:10254000A84204D908F80410641E6D1CF8E70026A0
:10255000641C06E008EB0400815DD9E90320904784
:10256000761CAE42F6D311B02846BDEC068BBDE812
:10257000F08F0000000000000000000000000000DC
:102580000000E03F2DE9F04790B0002617468DF897
:102590003F60926804463E259046B1466846520721
:1025A0000DD5221E71F1000209DA0023D4EB0304D9
:1025B0003A6863EB0101521E4FF02D093A608246E2
:1025C0005FEAC86021D5200940EA017004F00F02DB
:1025D00009090A2A08D35FEA087301D5412300E0FC
:1025E00061231A440A3A00E03032D3B20AF80530C7
:1025F0006D1E0446761C52460843E1D1B9F1000F26
:1026000012D05FEAC8700BD00EE00A2200232046E9
:10261000FDF7B6FE0A22A0FB0223A21A3032E4E73D
:102620000AF805906D1E761C302138682023B042D0
:102630000BDD5FEA887408D45FEAC87401D0515595
:1026400000E053556D1E761CF1E7B9F1000F06D07E
:10265000401CB04203DD02F805906D1E761C00247C
:1026600090466D1C07E000BF08EB0500015DD7E94F
:1026700003209047641CB442F6DB387A800705D407
:1026800007E0D7E9032020219047761C3868B04244
:10269000F7DC10B03046BDE8F08700002DE9F041CE
:1026A0000D468046FDF722FF04466868002610B1FB
:1026B000A04200DA0446287A80070AD4274605E0BB
:1026C000D5E9032020219047761C7F1C2868B8425A
:1026D000F6DC002707E000BFD5E9032018F8011B4E
:1026E0009047761C7F1CA742F6DB287A800706D429
:1026F00008E0D5E9032020219047641C761C286857
:10270000A042F6DC3046BDE8F081000070B504461A
:102710000D4621A003F06EFC00222146284601F060
:10272000E9FE10F0FF0F05D023A100F0E3F84FF011
:10273000FF3070BD25A003F05DFC211D206801F075
:1027400056FF0025AE1ED0B1206801F06DFF0028B5
:10275000206808D0211D01F04AFF80B1201D00F043
:1027600075FF002070BD01F019FF1FA100F0C2F835
:10277000206801F0EDFE6FF00300256070BD206859
:1027800001F00CFF1DA100F0B5F8206801F0E0FE9B
:102790003046256070BD00004372656174696E67E4
:1027A00020746865206E6574776F726B20222573C4
:1027B000222E2E0D0A00000061695F6D6E65747730
:1027C0006F726B5F6372656174650000496E697456
:1027D00069616C697A696E6720746865206E6574DA
:1027E000776F726B0D0A000061695F6D6E657477BB
:1027F0006F726B5F696E69740000000061695F6DE4
:102800006E6574776F726B5F6765745F696E666F14
:102810000000000070B50A4605004FF000041AD011
:1028200011482B780168C3B1044689B16068FDF78F
:102830005DFE06462846FDF759FE864208D16068CF
:10284000FDF754FE024629466068FDF76EFE00B1B2
:102850000024204670BD002070BD002AF9D1002957
:10286000F7D00446F5E70000A00C00202DE9F04168
:102870004FF0FF3600F0BAFD0F4F002038600FA078
:1028800003F0B8FB00252946002001F079FE040082
:102890000CD0014611A003F0ADFB05EB451007EB92
:1028A00080002146FFF732FF060002D16D1C002C8C
:1028B000E9D13046BDE8F081A00C00204469736383
:1028C0006F766572696E6720746865206E657477CF
:1028D0006F726B2873292E2E2E0D0A000D0A466F7B
:1028E000756E64206E6574776F726B20222573227B
:1028F0000D0A0000020A29B1C0B21346024603A025
:1029000003F078BBC1B20DA003F074BB453A20417F
:1029100049206572726F722028257329202D20743A
:102920007970653D30782530327820636F64653D7D
:102930003078253032780D0A00000000453A2041F9
:1029400049206572726F72202D20747970653D3058
:10295000782530327820636F64653D3078253032D9
:10296000780D0A0030B50D4A0023137513700C7AE8
:10297000E5074FF0010400D01470097A890701D5EA
:10298000147014750021C2E9061153609360C2E906
:102990000811C0F88020084630BD0000280D002036
:1029A0002DE9F04F17462DED028B9BB00D46D0F868
:1029B000804002F03FFACDE91001A80709D5606810
:1029C000401C6060E80503D5DDE91001C4E9080199
:1029D000C4E06807FCD502F0A7FAD4E90831DDE9C4
:1029E000100218185141C4E90801A068401CA060F9
:1029F000A80501D5022000E00120217D000409B1D5
:102A000040F000407988C1F30E0141EA0009F868FE
:102A10000188012902D945680C3500E0002500260F
:102A200086E000BFD8F8000038B1416829B142887B
:102A30001AB1096891ED008A01E09FED4C8AD8F83F
:102A400018100968CA15D2070AD038B142682AB1ED
:102A5000408818B1506890F900000BE0002009E0B0
:102A60000028FBD04268002AF8D040880028F5D022
:102A7000506800788A460290D8F80C100522C86881
:102A8000049088680E90D8F80800D1F804B0B2EB32
:102A9000102F01D80A6900E0012201920622B2EB50
:102AA000102F01D1496900E0012100911C22304919
:102AB00006A8FDF7CAFDCDF818A0D8F818000E9AA0
:102AC000C0680790DDE90010484304994143514331
:102AD000CAF3C612012A0DD05A4651430A91CDE9D4
:102AE000130B0E9815900498169013A80C9035B1FE
:102AF000288805E00BF11F0222F01F02EDE70020FD
:102B0000401EB04202D949F4802800E0C846DDE901
:102B1000100102F031FB06AAB888CDE90002D4E921
:102B20000301F0EE480A4346022200F07DFA761CCB
:102B30000DB1288800E00020B04207D9686828B1AC
:102B400050F826005FEA00087FF46CAF02F072F9DB
:102B5000D4E9062380185941C4E9060102F0E4F9DA
:102B60001BB00020BDEC028BBDE8F08F0000000020
:102B700098C50A08002800D0006970472DE9FC417B
:102B8000146880460021206965680668E160402E6F
:102B900003D022681168B14202D00025022012E061
:102BA000916903694F68BB420BD18368CF68BB4210
:102BB00007D1C3688F68BB4203D140680968884267
:102BC00004D0002505200127E0600AE0012745B177
:102BD0000121104601F062F8314601F056F8054631
:102BE00060602068466811E03A466946404604F055
:102BF00013FC002817D0002D05DD1EB19DF8000044
:102C000030703E446D1EA068401CA060D8F80800DB
:102C10000028E9D1E06828B9D4E90101814201D056
:102C20000120E0600120BDE8FC812DE9F047146837
:102C3000884681466568EDB12068D8B101210668F3
:102C400001F02CF82168896909684843314601F090
:102C50001CF80646206841464768484604F040FA9A
:102C6000002808D032463946484604F0B9F9002811
:102C700001D0A5600120BDE8F08738B50D460446B7
:102C800081680C30FFF7C6FD40B1031D01B0294635
:102C90002046BDE83040002200F018BA0420034668
:102CA000024600902946204600F0B4F938BD0000E5
:102CB0002DE9F04F8B460746A3B04FF0FF310C30A3
:102CC000FFF7A8FD04004FF0040804D03946FFF7D1
:102CD00049FE00251EE00423CDF8008089E000BFF6
:102CE000A06BC5EBC50600EB86010EA800EB8600C5
:102CF00081461C22FDF7A9FCA16B08EB8600085851
:102D000010B1C9F8040004E06D4850F82510C9F866
:102D100004106D1CA08EA842E2DC00251AE000BF62
:102D2000E06BC5EBC50600EB860107A800EB86004B
:102D300081461C22FDF789FCE16B08EB86000858F0
:102D400010B1C9F8040004E05E4850F82510C9F835
:102D500004106D1CE08EA842E2DC0EA8FFF70AFF0B
:102D600003464FF0000A012259463846CDF800A02C
:102D700000F050F900250EAE0FE00122691C8842D8
:102D800000D10222C5EBC50006EB80035946384648
:102D900000F000F9002831D06D1CA08EA842ECDCB8
:102DA000D4F88050297891B1216881B1C5E9037BBD
:102DB00015AA04A9206801F005FC4348C5E90A04E6
:102DC0000620286305F12801049801F089FF02F02C
:102DD000ABF807AA0EA9206801F063FC012810D007
:102DE000206801F0DBFB39A1FFF784FD0A200346D0
:102DF000009004225946384600F00CF923B0BDE893
:102E0000F08F02F017F8D4F880300A464FF002092C
:102E10009D691C3393E84210AB1941EB0C0113EB95
:102E2000000851410D465E46404602F0A5F9D4F82F
:102E30008000007890B11520F080C6F808A086EDDB
:102E4000060AA16F0120C6F80CA0C6E904014A4693
:102E50003146384600F0FCF900F044FA00261CE048
:102E6000711C4FF00209884201D14FF0030940461E
:102E7000294602F081F9C6EBC60207A901EB8201DF
:102E8000CDE900A1DFED150A00234A465946384630
:102E9000CDF808A000F0C8F8761CE08EB042DFDC68
:102EA000D4F8805028780028A8D015AA01A9206855
:102EB00001F088FB05F12801019801F03BFF9DE737
:102EC0003009002034090020A129000861695F6DE4
:102ED0006E6574776F726B5F72756E000000000034
:102EE0000A23CB8040F202238B60130C92B242F093
:102EF0000202CA6043F440720A61002200F0A8B9DD
:102F000070B505460B200C46C880FDF7B3FEA060E7
:102F1000FEF74CF8E060FEF723F8206102F0F6FFC0
:102F2000606121462846BDE87040002200F090B95B
:102F300030B5044685B04FF420711548FDF7D9FB34
:102F400004F01AFA0021684604F0F6F99DE80F0033
:102F50000F4D85E80F000021684604F0F9F91422AE
:102F6000694605F11000FDF770FB0020A862686259
:102F70004CB1204603E0A96A491C0C30A9624168A3
:102F80000029F8D16C62012085F87C0205B030BDC3
:102F9000200A00202DE9F04190B00024804616461A
:102FA0000F4601250394184604940193FFF7E2FDB0
:102FB000029006A8059014480E9001A80F9006AA4A
:102FC0001249134803F08DFC04F09CF9049848B1B1
:102FD000C0B20090042239464046049B00F01AF823
:102FE00000250CE00094324639464046039B00F031
:102FF00011F8012E01D0022E01D100F073F910B0AA
:103000002846BDE8F08100007D2B00089EC80A0814
:10301000200A002030B40C25029CCD808B600C73FC
:1030200030BC00F015B900002DE9F04385B00C4626
:10303000DDE90D1716468D6800228146DDF83080E7
:103040000292084603920091FFF794FD04920190CA
:10305000002B00DA019223F000400E23E380C4E944
:10306000020884ED040A0868606188690068A0614C
:103070008869C068E0618869806820628869406802
:10308000226360625DB1F5EEC00AF1EE10FA06D17E
:1030900004F114020021284600F0ECF802E0C4ED2F
:1030A0000A0AE76208486063C4F838D0324621460D
:1030B000484600F0CDF8022E03D0012005B0BDE84F
:1030C000F08300F00FF9F9E72B2C00082DE9F04709
:1030D000824696B01420C88091460C461D46402278
:1030E0000831186800F052F9402204F1480168687C
:1030F00000F04CF9402204F18801A86800F046F97C
:10310000402204F1C801E86800F040F9402204F5CB
:103110008471286900F03AF9402204F5A671A86983
:1031200000F034F9288EC4F8A001688EC4F8A40118
:10313000686FC4F8A801E86AC4F89C01A86FC4F8D5
:10314000FC0105F1240004F5A47400F043F9E064E7
:1031500005F1280000F03EF9206505F1140000F0AB
:1031600039F9206005F11C0000F034F9606405F1C4
:10317000200000F02FF9A0640026B5F84A101027AF
:10318000A4F5A47461B1002008E000BFC0EBC00347
:10319000EA6C07EB8303401CD25816448142F5DCED
:1031A000DFF8A0800DF1380C98E80E00D8F80C007C
:1031B00011908CE80E001C2208F110016846FDF702
:1031C00044FA0EA80690049604F5DE710F96684640
:1031D00002F0B6FEB5F84210002659B1002007E013
:1031E000C0EBC0036A6C07EB8303401CD258164443
:1031F0008142F5DC08F12C0012AF90E80E00D8F8FF
:103200003800159087E80E000E491C223C3107A8B3
:10321000FDF71BFA12A80D900B9604F5EE711396AC
:1032200007A802F08DFE0848C4E96B050748C4E909
:103230006D054A462146504600F00AF816B0BDE832
:10324000F087000040C50A08A9630008B9630008B8
:1032500010B5006808600A710A460449044803F082
:1032600051FEBDE8104004F059B80000F7C90A0843
:10327000300A002010B59FED1A0A002382ED050ADE
:10328000936100282AD00378DB0727D04368002BFE
:1032900024D05C683CB15B888B4204DD236803EB7F
:1032A000810393ED000A82ED050A0378DB0713D052
:1032B000406888B103789B07436806D563B14088AE
:1032C000884209DD5868405C07E02BB1408888429D
:1032D00002DD5868405600E00020906110BD0000FB
:1032E000000000001CB50020009001906A460449CF
:1032F000044803F0F6FA044604F004F820461CBD26
:1033000052C90A08200A0020F8B503F0FBFF1D4A45
:103310001D491746A2F12C0003F0E3FA68B303F04D
:10332000F1FF184C02202C3C002584F87C02D4E9E3
:10333000093104F17C0694F830200EE005EB4500DD
:1033400003EB800090F800C0944505D1D0E901322C
:1033500031463846984702E06D1CA942EED8A06A73
:10336000A84207D104200346024600903146384661
:10337000FFF750FE012084F87C0203F0C3FF002019
:10338000F8BD00004C0A002028C60A08FEB5144605
:103390000DA20D46064607CA8DE807003046FDF728
:1033A000A5F8A04200D9601E002D0CD01EB110B1AE
:1033B000421C314604E06846FDF798F8421C694615
:1033C0002846FDF7FDF8FEBD554E444546494E459D
:1033D00044000000002807D00188827849BA090417
:1033E000C07841EA02210843704700000EB5002270
:1033F000012107208DE8070013460A4601A002F0CC
:10340000F9FD0EBD0D0A414920706C6174666F7242
:103410006D20284150492025642E25642E256420E6
:103420002D2052554E54494D452025642E25642E9D
:103430002564290D0A0000002DE9F04306462DED14
:10344000028B83B00121056800F028FC0246B069B8
:103450004168CDE90012D0E9023201685AA002F0B9
:10346000C9FDC5F34344012C06D0032C08D0E81550
:10347000C0070BD059A10AE0C5F3C61158A002E05D
:10348000C5F3C61158A002F0B5FD05E058A1C5F37B
:10349000C61258A002F0AEFD022C71D1B06800280F
:1034A0005AD00178C90757D04068002854D04788BF
:1034B000042F01D9042000E03846804639464FA049
:1034C00002F098FD00249FED4F8A3BE0B06878B190
:1034D0000178C9070CD0416851B14A6842B14988A6
:1034E000A14205DD116801EB840191ED000A01E0C4
:1034F000B0EE480AB0B10178C90713D0406888B16E
:1035000001788907416806D561B14088A04209DD8C
:103510004868005D07E029B14088A04202DD4868A4
:10352000005700E00020814610EE100A05F00CF86C
:1035300041EC100B34A053EC102BCDF8009002F0AE
:1035400059FD641C4445C1DB474501DD31A000E065
:1035500029A002F04FFD13E0C5F3C611082903D2DC
:103560002DA002F047FD0BE005F07F03C5F3C0502E
:103570001844091AA3F140022AA0403102F03AFD92
:1035800070684FF00101002830460ED000F086FB35
:10359000294600F07AFB716803B00246BDEC028B4D
:1035A00022A0BDE8F04302F025BD00F077FB2946DC
:1035B00000F06BFB03B00146BDEC028B1EA0BDE822
:1035C000F04302F017BD00002825642C25642C254B
:1035D000642C2564292025642F0000006900000068
:1035E000666C6F6174256400626F6F6C2564000007
:1035F0007500000025732564000000002025643A52
:1036000000000000000000002825662C2564292CFD
:10361000000000002E2E000020696E7433322D252C
:1036200064620000205125642E256400204030781B
:1036300025582F256400000020285573657220440A
:103640006F6D61696E292F256400000070B5044616
:1036500048A002F0CFFC4EA0216802F0CBFC53A0A2
:10366000616802F0C7FC58A0A16802F0C3FC5DA02D
:10367000E16802F0BFFCA37D627D217D60A002F0C5
:10368000B9FCA169087810B166A002F0B3FCA37F71
:10369000627F217F6AA002F0ADFC72A0E16A02F0B5
:1036A000A9FC79A0616F02F0A5FCB4F84A107DA0D6
:1036B00002F0A0FC00250FE0E06CC5EBC50100EBBB
:1036C000810629467EA002F095FC3046FFF7B4FE45
:1036D00035A002F08FFC6D1CB4F84A00A842EBDC68
:1036E000B4F8421078A002F085FC002510E000BF7D
:1036F000606CC5EBC50100EB8106294670A002F0A5
:1037000079FC3046FFF798FE27A002F073FC6D1C91
:10371000B4F84200A842EBDC628E218E71A002F068
:1037200069FC00250EE0294676A002F063FC606B80
:10373000C5EBC50100EB8100FFF77EFE1AA002F089
:1037400059FC6D1C208EA842EDDC00250EE02946B8
:103750006FA002F04FFCA06BC5EBC50100EB810030
:10376000FFF76AFE10A002F045FC6D1C608EA842B7
:10377000EDDC70BD4E6574776F726B20696E666F9D
:10378000726D6174696F6E732E2E2E0D0A0000002B
:10379000206D6F64656C206E616D65202020202097
:1037A000202020203A2025730D0A0000206D6F6430
:1037B000656C207369676E617475726520202020C6
:1037C0003A2025730D0A0000206D6F64656C20643B
:1037D00061746574696D6520202020203A2025736E
:1037E0000D0A000020636F6D70696C652064617460
:1037F0006574696D652020203A2025730D0A00004C
:103800002072756E74696D652076657273696F6E6E
:10381000202020203A2025642E25642E25640D0AC0
:103820000000000020546F6F6C2072657669736928
:103830006F6E2020202020203A2025730D0A0000E2
:1038400020746F6F6C732076657273696F6E2020C1
:10385000202020203A2025642E25642E25640D0A80
:103860000000000020636F6D706C657869747920CA
:1038700020202020202020203A20256C75204D413A
:1038800043430D0A0000000020632D6E6F646573D2
:103890002020202020202020202020203A202564C5
:1038A0000D0A0000206D61705F6163746976617458
:1038B000696F6E73202020203A2025640D0A0000D5
:1038C00020205B25645D2000206D61705F77656955
:1038D0006768747320202020202020203A2025644F
:1038E0000D0A0000206E5F696E707574732F6E5F35
:1038F0006F757470757473203A2025752F25750DBA
:103900000A0000002020495B25645D2000000000C3
:1039100020204F5B25645D200000000010B509A049
:1039200002F068FB0023062208A110A002F062FB4F
:1039300012A002F05FFB03F09FFF01F0A3FA00204A
:1039400010BD00000D0A230D0A0000004149205659
:10395000616C69646174696F6E20284F627365726F
:1039600076657220626173656429000023202573E7
:103970002025642E25640D0A00000000230D0A0096
:1039800010B5FEF773FF040009D0014615A002F040
:1039900031FB4FF4FA60FDF741F8204610BD17A047
:1039A00002F028FB16A002F025FB21A002F022FB6A
:1039B00013A002F01FFB11A002F01CFB284802F02C
:1039C00019FB28A002F016FB0222114632A002F0D9
:1039D00011FB4048FFF7ACFAFFF796FC0028FBD03C
:1039E00010BD00000D0A453A20206169496E6974D6
:1039F000282920723D25640D0A0000000D0A0000F0
:103A00002D2D2D2D2D2D2D2D2D2D2D2D2D2D2D2DE6
:103A10002D2D2D2D2D2D2D2D2D2D2D2D2D2D2D2DD6
:103A20002D2D2D2D2D2D2D2D2D2D2D0D0A00000090
:103A30007C20524541445920746F2072656365694A
:103A40007665206120434D442066726F6D20746856
:103A50006520484F53542E2E2E207C0D0A00000066
:103A6000E0CB0A082320616E6420612073746D33FB
:103A700032636F6D2D6261736520696E7465726665
:103A80006163652073686F756C642062652075736F
:103A900065640D0A00000000232028692E652E2091
:103AA000507974686F6E2073746D3332636F6D205C
:103AB0006D6F64756C65292E2050726F746F636F23
:103AC0006C2076657273696F6E203D2025642E250B
:103AD000640D0A00EC08002079B1C0F3C61251430E
:103AE000C91DC0F3415321F00701D940C0F3434041
:103AF000042804D0082807D104E00020704701EB17
:103B0000021101E001EB0221C91DC808704759B13B
:103B1000C0F3C6125143C91D21F00701C0F3415043
:103B2000C140C91DC80870470020704770B54021CA
:103B3000C0F34342022A1BD0394A20F07E439C1A2C
:103B40000D014E0193425FD029DC364AA3EB0204FB
:103B5000934259D019DC402B57D0403BB3F580231A
:103B60004CD0802B37D0AB424FD12E49C91F4CE0EF
:103B7000C0F3C051C905C0F3C61241EAC21100F03A
:103B80007F02114341F480213FE0A4F54074F93CE9
:103B90001FD00F2C35D0B44237D1234935E0234B09
:103BA000E21A9C421BD00BDC214AA2181DD0802AAD
:103BB00019D0AA4211D0A2F58062073A25D117E0A8
:103BC0000F2A18D0B2420CD01A4BDA421DD11A4932
:103BD0001BE01A4919E01A4917E01A4915E01A4979
:103BE00013E01A4911E01A490FE0194980390CE035
:103BF0001449C91D09E014490F3106E01049803904
:103C000003E00E490F3100E0114600F080420A4304
:103C100000F00051114300F00060084370BD000047
:103C200040040600470404004010040000047E0025
:103C3000000482FF00F801FF4010820140080400E8
:103C4000C000040040048400400884004010840048
:103C5000C000840070B514460D46064600F00CF80E
:103C600040B17068C5EBC50110EB810002D0446023
:103C7000012070BD002070BD28B1416819B1408895
:103C800008B10120704700207047002804D0C1F31C
:103C9000C6114843C01DC0087047000010B502009F
:103CA0002AD0164B1068B3EBC01F03D0144BB3EBF4
:103CB000C01F01D1012000E0002008429069406847
:103CC00002D01F3020F01F005369D9B2012900D063
:103CD00000211C0A07E0012907D0936953F821301D
:103CE0005843491C1AB1234602E00123F8E7002398
:103CF0008B42F0DC002800DC002010BD0060004298
:103D00000060000208B509A10968009148B1017876
:103D10009DF80020914204D104226946FCF7BAFBC9
:103D200008B1002008BD012008BD00000384048400
:103D30002DE9FF4F83B0DDE91141B1FBF4FADDE974
:103D40001370DDE91895DDE91668791B614302916E
:103D5000DDF840E0DDF854C0411B0191ACEB0801F7
:103D6000414306FB0090009103EB8001049B9E45BC
:103D700002D19FED361A01E0B7EE001A7E4366438A
:103D800002EB86024FF0000902EB840B58E000279B
:103D900053E000BF0EEB8900002690ED000A1046AC
:103DA00020EE010A3CE0002325F0030C22E000BFD6
:103DB000D1ED002A90ED003A00EB840091ED012A4C
:103DC00002EE830AD0ED002A00EB8400D1ED021A46
:103DD000D1ED030A103102EE220A90ED002A00EB29
:103DE00084001B1D01EE820AD0ED001A00EB840056
:103DF00000EEA10A9C45DBDC09E000BFF1EC010A02
:103E0000D0ED001A00EB84005B1C00EEA10AAB426F
:103E1000F4DB029B761C00EB8300019B01EB83012A
:103E20004645C0DB00987F1C01EB8001049800EB45
:103E3000890009F1010980ED000A5745AAD3121D36
:103E40009345A4D807B0BDE8F08F00000000000043
:103E50002DE9FF4F86B017ACDDE91EC794E8450099
:103E60009CFBF0F400FB14C4041B94FBF0F5DDE9AB
:103E70001C9100FB154E99FBF2F502FB1594141BE7
:103E800094FBF2F502FB15450CEB0004641E94FB59
:103E9000F0FC09EB0204641E94FBF2F8A7EB0E049D
:103EA000DDE9143B491B1144491E91FBF2F7DDF893
:103EB0006CA00444641E94FBF0F4CDE9008CDDF8A2
:103EC00058C0B3FBFAF102FB0CF200FB142258437A
:103ED0005A43401ACDE90402301B48431A9A039012
:103EE00001FB06F0D21B5043DDE9008C029008FB79
:103EF00006C0BBFBFAFB099A484302EB8002079E0F
:103F00001398B04202D1DFED2A0A01E0F7EE000A71
:103F1000169809EB050606FB00E05843089B4FF096
:103F2000000803EB800E40463BE0002633E0139888
:103F3000002500EB880090ED000A704620EE200A74
:103F40001CE0002311E000BF00EB810C06E000BF85
:103F5000B2EC011AF0EC011A01EE210A6045F7D328
:103F6000DDF810C05B1C00EB8C00A342ECDB059B72
:103F70006D1C00EB8300039B02EB8302BD42E0DB80
:103F80000298761C02EB8002079800EB880008F18B
:103F9000010880ED000A5E45C9D30EEB810E09F1E0
:103FA000010081465045C0D30AB0BDE8F08F000043
:103FB000000000002DE9FF4F2DED020B82B0DDE97E
:103FC0001709DDE914E8119A00FB08F0504303EBF0
:103FD000800A0027DDF84CB0199CA8E06342002B52
:103FE00000DC0023ABEB0405454500D34546E01853
:103FF0000699504301EB800103FB02F0EB1AABEB97
:10400000030555430195A8EB0305554300950AEBBD
:10401000800002FB03F5F0EE400A00267AE0002360
:1040200025F00F0C63E000BF91ED004AD0ED004A8F
:1040300091ED013A90ED011A44EE840AD1ED023A75
:10404000D0ED022A91ED032AD0ED031A91ED044A36
:1040500041EE030AD0ED044A90ED063A90ED071ABE
:1040600042EEA30AD1ED053AD1ED062A41EE820ACD
:1040700090ED052AD1ED071A44EE840AD1ED084AE5
:1040800090ED084A42EE230AD0ED093A91ED0A2A52
:1040900043EE220A91ED093AD0ED0A2A41EE210AB7
:1040A00091ED0B1AD0ED0B1A44EE240A91ED0C4A57
:1040B000D0ED0C4A43EE830A91ED0D3AD0ED0D3A66
:1040C00042EE820AD0ED0E2A91ED0F2A41EE810ACE
:1040D00091ED0E1AD0ED0F1A40304031103344EEFE
:1040E000840A43EE830A42EE810A41EE820A9C452D
:1040F0009ADC06E0B0EC011A5B1CF1EC011A41EE0F
:10410000210AAB42F6DB019B761C01EB8301009B8D
:1041100000EB83004E4582DB05987F1CC0ED000A52
:104120001299059800EB810005901A980444774590
:10413000FFF454AF08B0BDE8F08F00002DE9FF4F49
:1041400089462DED028B8FB0DDE92C035843DDE964
:104150002824DDE926B3DDE92075DDE91EA6D21AA3
:104160000D92BBF1010F01D1012805D0B34501D15A
:1041700001287CD000200BE12A98CDF838A0184403
:10418000684313997043DDF850B001EB80000C9048
:10419000CDF82890ABF100609FED808ADDE9231215
:1041A000514301FB06F8B0F1807F31D2002027E0B7
:1041B000BAF1000F04D00E98B0EC010A0E9001E0A5
:1041C000B0EE480A25980D9A2799CDE90840CDE927
:1041D000061222AB0DF10C0C93E8070000968CE858
:1041E0000700CDE901755B460C9A0A991198FFF713
:1041F000E1FE0A980BEB880B001D0A9009F1010003
:104200008146B842D4D30FB0BDEC028BBDE8FF8F1E
:104210004FEA8800FCF75EF80B90002037E00020A2
:104220000AE000BF0BEB800191ED000A0B9901EB56
:104230008001401C81ED000A8045F3D8BAF1000FDF
:1042400004D00E98B0EC010A0E9001E0B0EE480ADE
:104250002599279806AB0D9A099183E8150022ABA2
:1042600093E8070003AB009683E8070000E01AE03C
:10427000CDE90175DDE90A130C9A1198FFF79AFE52
:104280000A980BEB880B001D0A9009F1010081468A
:10429000B842C4D30B980FB0BDEC028B04B0BDE89C
:1042A000F04FFCF746B8002032E06042002800DC06
:1042B00000202B992B1B8B4200D30B462A992218E6
:1042C00001FB0521139A714302EB8102BAF100014F
:1042D00001D08C4600E0CC46DDF89C801B1A0D997D
:1042E000CDF818800993CDE90710DDE92301CDE968
:1042F0000401CDE90275CDE900C64946149B119829
:10430000FFF716FD259809EB870904440BF101001E
:10431000834622988345C8D375E76042002800DCB5
:1043200000202B992A1B8A4200D30A462A99231877
:1043300001FB0531139B714303EB810EBAF10001C0
:1043400001D00B4600E04B460D99CDE90A10DDF88F
:104350009CC0121ACDF824C00C92DDE92321CDE9CE
:104360000621DDF8B4C02C98CDF814C0CDF820B0EB
:10437000CDE903508DE8C80072464946149B119858
:10438000FFF766FD259809EB8709044408F1010051
:10439000229980468842C0D335E700000000000023
:1043A000F0B5042BDDE9055400EB840427D0082B7D
:1043B00027D12FE000236E0812E00F783F0902EBAF
:1043C000870797ED000A80ED000A11F8017B07F0DE
:1043D0000F0702EB870797ED000A80ED010A08300E
:1043E0001F465B1CB742E8D3EB0708D011F8013B2E
:1043F0001B0902EB830393ED000AA0EC010AA04223
:10440000D8D3F0BD11F8013B02EB830393ED000A12
:10441000A0EC010AA042F5D3F0BD2DE9F041446BB8
:10442000002594B1012600272079400707D5A16A0D
:10443000204611B18847304600E0384605442069DF
:10444000A04202D008B10446EEE72846BDE8F0815C
:1044500070B5C66B416B04460025AEB1E9B1A163EE
:104460000120226CB0470220226CA16BB047A06BE8
:10447000FDF7DAFCA06301460320226CB047A06B75
:104480006D1C0028EFD108E039B1A163A06BFDF7E6
:10449000CBFC6D1CA0630028F8D1284670BD0346F4
:1044A0000020596B002908D0CB600A69401C8A4261
:1044B00003D0002A01D01146F6E770472DE9F041FC
:1044C000446B002594B1012600272079C00707D04E
:1044D000216A204611B18847304600E0384605443D
:1044E0002069A04202D008B10446EEE72846BDE8A4
:1044F000F08100002DE9F041804617460D4600206E
:1045000000F084F8060015D0104C4046214600F01B
:10451000AEF888B1BFB12269394628469047010AF2
:1045200006D110F0FF0F03D13460296871602E604E
:10453000BDE8F081312000E0142060F30705E8B207
:1045400000F58050F4E722696168E6E790CA0A083E
:1045500070B5054600F05AF804000CD0D4E90010FC
:10456000896988476168814205D00448A04201D129
:10457000002101600025284670BD0000740D002058
:1045800070B5054C0D46214600F071F810B90DB11B
:10459000002070BD206870BD90CA0A0810B50146A1
:1045A000142262F30700C4B2084604F5805400F0F8
:1045B0002DF828B103C84269BDE8104008461047ED
:1045C000204610BD70B515460C4600F01FF858B1D6
:1045D00054B14DB14168216000F1080138222846EC
:1045E000FCF733F8002070BD4FF0FF3070BD10B500
:1045F0000C4600F00BF8002806D005C82146C36819
:10460000BDE810401046184710BD000001000548E5
:1046100003D0884204D10846704701680029FBD0C6
:1046200000207047740D002070B58EB0FFF7EEFFCC
:1046300004001AD02068816868468847002503AEC8
:1046400008E020682946806A50F825203046FFF7A8
:1046500001FB6D1CBDF80E00A842F2DCD4E900108D
:10466000CA69694690470EB070BD0020FBE770B57F
:104670000C46050011D02068FBF738FF0646284697
:10468000FBF734FF864208D12068FBF72FFF024674
:1046900029462068FBF749FF08B1002070BD0120C2
:1046A00070BD70B514460D46FFF7B0FF002808D066
:1046B00009C82246066A2946B446BDE87040184635
:1046C000604770BD1CB500230522CDE900230123FE
:1046D000014A00F08DF91CBD480500201FB50028D7
:1046E0000CD00749D1E90023CDE90023D1E902210B
:1046F000CDE902216A4602A900F022F904B010BDFA
:10470000A8C40A0800F0F8B9002200F0B8BA00F016
:10471000FFB9000030B59FB00C46054600F026F901
:10472000FCB1F0B17C2210496846FBF78EFF00F027
:1047300013FB049000F018FB059000F0F7F80990C7
:1047400000F04CF90A906946284600F029F8002844
:1047500005D07C2269462046FBF777FF01201FB079
:1047600030BD0020FBE70000B88700082DE9F041CC
:104770000D46064600F0DAF9041E0DD0294601F078
:1047800089FC07462946204601F050FC00EA070450
:10479000304600F051FA2040BDE8F08100F06FBAD9
:1047A0002DE9F0418CB00C4600F0E0F805000DD08A
:1047B00064B100206067686B60B1616F491C61671C
:1047C0000169814206D029B10846F6E700200CB005
:1047D000BDE8F081606F70B1A88D00B1286B04F165
:1047E0003401FDF72DFB208638B1A88D012807D9AB
:1047F000286B0C3005E0182228E01822122126E050
:10480000002004F13801FDF71BFB608630B105F193
:1048100024000746FFF730FA18B10AE018221321E6
:1048200015E03846FFF728FA18B1E88C08B11322D2
:104830000CE005F11C008046FFF71EFA58B940460F
:10484000FFF71AFA38B1E88B28B112221121284655
:1048500000F03FFABAE76868A067FCF781F82D48D6
:10486000206100F081FA606100F060F8606200F0A1
:10487000B5F8A062686C00F081FA206226A1E06BB6
:10488000FDF7B8FB50B12748E063D5E90901C4E959
:104890001201D5E90701C4E9100138E0224807AE4A
:1048A0000FC886E80F0020491C2210316846FBF72C
:1048B000CCFE07A8069004F158001C226946064663
:1048C000FBF7C3FE04F13C001C2269460446FBF7DB
:1048D000BCFE3846FFF7D0F950B13846FFF7CCF9A7
:1048E00008B1A96A00E000211C223046FBF7ADFEAA
:1048F0004046FFF7C1F950B14046FFF7BDF908B196
:10490000296A00E000211C222046FBF79EFE0120C0
:104910005DE70000644D0008676574207265706F84
:1049200072740000DECAFAA100CB0A08034810B571
:104930000469FCF715F8204610BD0000D4CA0A0827
:1049400010B570B169B162B1074C0460D1E90041A2
:10495000C0E90141D2E90012C0E90312012318465F
:1049600010BD002010BD0000DECAFAA110B518B1BC
:10497000044A0168914200D000200446FBF7F0FF92
:10498000204610BD0001C0A130B44AB140B139B1D8
:10499000074C1368A34206D130BC0C32FDF708BBAC
:1049A00030BC0020704730BC1C32FDF7D9BA000083
:1049B000DECAFAA130B44AB140B139B1064C13682D
:1049C000A34206D130BC121DFDF7F2BA30BC002064
:1049D000704730BCFDF7C4BADECAFAA1034810B56F
:1049E0004469FBF7BDFF204610BD0000D4CA0A0889
:1049F0002DE9F04F89B00646DDE912104FF0000AAC
:104A0000554663F30705CDE9011361F30F25904681
:104A1000544660F317458346FDF70FFA304F010007
:104A20001CD0304800680123C0F30220042806D0BF
:104A30002D48182202600268182A13D00BE02B4878
:104A40001422836083680BB1521EFBD1826812B9B5
:104A50000068401C0AD00846FDF75AFAF86909B008
:104A6000BDE8F08F03600268002AFCD10846FDF71C
:104A70004FFAFBF775FFE6B11D49C8F80010C6F8FC
:104A8000008000F0AEF9B0B1FFF7A8FF8146C5F392
:104A90000721E8B2002200F08AF90546C9F3072190
:104AA00009F0FF00002200F082F9854205D07C6801
:104AB0000BE0386AD3E73C6807E00EA0006800907E
:104AC0006846FFF71FF910B9BC68C6F800A0DDE919
:104AD00001105A4600F06BF9C8F844002046BEE7C2
:104AE000D4CA0A08002004E0084C025800300240F2
:104AF0000001C0A10384048410B50446FFF736FF0B
:104B000018B1FFF78AFC002010BD204610BD000040
:104B100010B5FFF72BFF20B1BDE81040103000F0BA
:104B20005AB90148806910BDD4CA0A082DE9F04F6E
:104B300091B00C46FFF71AFF050013D0B4B13BA1AA
:104B40002068FDF757FA06004FF0000B11D02068DF
:104B50000190D4E90301CDE90401D4E90101CDE9D3
:104B6000020143E0002011B0BDE8F08F11221021B6
:104B700058E001212046D4F804A0FFF78FF88046C2
:104B800004F11C00D4F8209001211090FFF786F862
:104B900007461422274906A8FBF757FD0120B8F164
:104BA000000F02D0ADF81E0002E0ADF81EB00024E8
:104BB00008941FB1ADF82600109802E0ADF826B0B9
:104BC00000200A90B9F1000F02D10FB1132206E0C4
:104BD000BAF1000F05D1B8F1000F02D01222102156
:104BE0001FE0142206A901A8FBF72FFD86F00102A1
:104BF000144602A905F11C00FDF78CF968B12246A4
:104C000004A905F12400FDF785F940B10320E8600F
:104C10002846FFF744FC2846A5E7122200E01322AD
:104C20001621284600F055F89CE70000696E69746B
:104C3000000000002CCB0A0870B5FFF797FE041E99
:104C400008D0207B800706D410221121204600F0D6
:104C500040F8002070BD2046FFF730FCE06B60B1EB
:104C6000656B55B1D4E90F32294600209847286971
:104C7000A84202D008B10546F4E7012070BD70B526
:104C800015460E46FFF772FE04462A463146FDF7EA
:104C9000BBF900281CD0A08D08B1256B00E00025D1
:104CA000012802D9266B0C360DE000260BE02846C1
:104CB000FDF7D1FA2046FFF7CBFB3046FDF7FFFAB0
:104CC000E08A401CE082E08AA18A8842EFD380B269
:104CD00070BD002802D0103000F09EB87047000070
:104CE00010B50C46FFF742FE40B13CB1016C41B13A
:104CF00040221121FFF7EDFF002010BD11221021ED
:104D0000F8E70023E381416B41B1E289521CE28163
:104D10000A698A4202D00AB11146F6E7A381217AD4
:104D200041F08071A1600249C0E90F14012010BD5B
:104D30003F23000810B50C46FFF718FE28B124B138
:104D400000210164C163012010BD11221021FFF771
:104D5000C0FF002010BD000010B5FBF701FE01A050
:104D600010BD000000000000034810B5C468FBF748
:104D7000F7FD204610BD0000D4CA0A080021020E2B
:104D800062F30701020C62F30F21000A60F317417E
:104D90000846704702460068010A012004E0536893
:104DA000491E53F8213058430029F8D170470006B6
:104DB00040EA014040EA0220704710B543689C1861
:104DC000446031B1002002E01C5C0C54401C904255
:104DD000FAD3012010BD002201680270026008466B
:104DE00070470120704720B1806910B103C8FEF7F9
:104DF00073BE0120704710B1806900B1014609B14E
:104E0000886870470020704720B1816911B14069FE
:104E10008068704700207047037813F0FF0F01D0BF
:104E2000002070470170016862F31F2101600120BA
:104E3000704700002DE9F04110484068104E0024F2
:104E40007168451AFBF728FFB1683268401A21469D
:104E5000131A74EB01030DD20023FBF791FA661EBF
:104E60000B46A0FB061703FB0673002200FB023073
:104E70004D19444128462146BDE8F081001000E06C
:104E8000680D00207FB500F0DDF9164D00246C6040
:104E90006420FBF7C3FD68686421B0FBF1F0214694
:104EA0006A4600F085F9DDE9011001EBC10202EB71
:104EB000011100EB81010CA0039A01F09BF86A46F6
:104EC000601E002100F074F9DDE9011001EB4102E0
:104ED000C2EBC11100EBC1001249086000F0B2F949
:104EE0007FBD0000001000E02054696D657374619F
:104EF0006D70202020203A205379735469636B2011
:104F00002B20445754202848414C5F44656C6179FC
:104F10002831293D25642E25303364206D73290DF9
:104F20000A000000680D002010B5FBF7B5FE04492B
:104F300000228860034842604068486010BD00005D
:104F4000680D0020001000E0F0B514698DB0154622
:104F50000646271DF4B12068E0B1022920D00A20BE
:104F600000906B4609AA304602F046FC00280FD09C
:104F700009A901A8009A02F005FA01AE96E80F000F
:104F800005AE86E80F00236869683A4605A8984789
:104F90000DB0F0BD0DB03046BDE8F04002F0A4BA4F
:104FA0006946304602F0F8F90028F1D023686968B4
:104FB0003A466846984750B102980028F6D16946AB
:104FC000304601F076FA0028E2D00120E0E7F068F0
:104FD00000B902A0F0600020DAE7000063616C6CA9
:104FE0006261636B206661696C65640053689B78DD
:104FF00013F0C00306D0402B09D0C168802B03D02A
:1050000041B906E000F01EB821B904A102E0FFF7A3
:105010009BBF07A1C1600020704700006E6F206D2C
:10502000616C6C6F6320737570706F727400000038
:10503000696E76616C6964206669656C6420747958
:10504000706500002DE9FF410B4651680546144686
:1050500088783F4E00F00F0210F0300056F82260C2
:1050600009D0102809D0202810D0302858D0E8685E
:10507000002869D167E022694CE0D4E90410884235
:1050800001D0012101702269616843E0022B32D115
:10509000042A30D84FF0010869462846676902F0B3
:1050A0007BF9002822D00AE0B1F80730226903FB1F
:1050B00000226846B04768B13888401C38800298A2
:1050C00068B161683888B1F809209042ECD3E8688B
:1050D000C0BB0EE002984FF000080028F7D16946E7
:1050E000284601F0E6F9002800D0404604B0BDE8AB
:1050F000F08118A028E0D4E90432B1F80710108834
:1051000001FB0033411C11806168B1F80920904215
:10511000DDD21A4604B02846B446BDE8F0416047E7
:1051200008886169072A0880ADD16068B0F8071067
:105130002069FBF7BCFA60682169D0F80B0002F027
:1051400057F9A0E700E007A0E8600020CEE70000E4
:10515000B4C50A086172726179206F766572666CF7
:105160006F770000696E76616C6964206669656CB2
:10517000642074797065000070B504462DED028BD3
:105180000D46FBF7EDFE00EE100A20462946B8EE6C
:10519000408A03F004FA00EE100ADFED040A60EE24
:1051A000200A80EE880ABDEC028B70BD00007A44B4
:1051B0002DE9F0471500064688463DD0FBF7D0FEA6
:1051C00007463A46002330464146FBF7D9F84FF4EC
:1051D0007A71A6FB01C3044608FB0130002206FBDE
:1051E00002013A4600236046FBF7CAF8144A81469A
:1051F000A6FB02C308FB0230002106FB01013A4670
:1052000000236046FBF7BCF802464FF47A70A4FB1B
:105210000010B9EB01014FF47A70A1FB0003084BB9
:10522000A4FB0336C018121AC5E90212C5E90074BE
:105230004FF00000BDE8F0874FF0FF30FAE70000C4
:1052400040420F000648016841F080710160054846
:10525000002141600168044A114301607047000069
:10526000FCED00E0001000E0010002002DE9F04735
:1052700086B01E00DDF8389014460D4680467FD07B
:10528000A9780220B0EB911F0DD0B5F80920B242E9
:1052900009D2D8F8100000B93BA0C8F810000020CF
:1052A00006B0BDE8F08701F00F01042948D82A882C
:1052B0000221404601F00EFF0028F1D0A87800F04E
:1052C0000F00032808D0042808D014216846FBF7F3
:1052D00010FAA24600270EE0B7000FE0F7000DE03D
:1052E0005246294668464B4698470028D8D0B5F81C
:1052F00007107F1C8A44B742F2D3039F00233A462B
:10530000404601F015FF0028CAD0D8F8000008B1C7
:10531000002712E006B03A464046BDE8F0470021BB
:1053200002F01EB92246294640464B4698470028BF
:10533000B6D0B5F807007F1C0444B742F2D31FE093
:10534000002782461AE02946404601F0C9FE00289F
:10535000A6D0A878BAEB901F05D100F00F00062860
:1053600010D005280ED02246294640464B46984785
:10537000002895D0B5F807007F1C0444B742E2D35B
:1053800001208DE72268EFE76172726179206D611B
:10539000782073697A652065786365656465640063
:1053A0002DE9FC410C46154689788046314A01F0CA
:1053B0000F0001AF52F82060B4F9050008B1471999
:1053C00006E0C1F3011001280BD001208DF8040084
:1053D000A0780221B1EB901F0DD12D6845B10121BC
:1053E00007E02946204601F015F880F00100EDE7BE
:1053F00000218DF8041010F0300009D0102812D0D0
:10540000202813D0302821D0D8F8100050BB28E035
:1054100005BBD8F8100028BB17A023E02A46214678
:105420004046B0470FE03878A0B920E0B4F8050056
:1054300008B13B8801E0B4F809302A4621464046CD
:105440000096FFF713FF00280FD010E0388821885E
:1054500088420CD12146404601F042FE002804D08B
:10546000DCE70BA0C8F810000020BDE8FC8101209B
:10547000FBE70000DCC50A086D697373696E67207D
:105480007265717569726564206669656C64000097
:10549000696E76616C6964206669656C64207479F4
:1054A0007065000010B58B7813F0C00306D0402B58
:1054B00008D0802B02D00169A1B912E0BDE81040EC
:1054C000FFF76EBF04461046121D036813B1204655
:1054D000984708B1012010BD206900B903A02061E0
:1054E00001E006A10161002010BD000063616C6C49
:1054F0006261636B206572726F720000696E766123
:105500006C6964206669656C64207479706500005C
:105510002DE9F04F04468069ADB0018809B14268B9
:1055200000E00022526832B109B1426800E0002276
:105530005268136800E00023012902D942680C3246
:1055400000E00022526842B1012902D942680C32BF
:1055500000E000225268166800E00026022902D905
:105560004268183200E0002252683AB1022902D99A
:105570004268183200E00022526812680229904600
:105580000BD9426812F1180F07D032F8185F012DBD
:1055900003D9526812B1526800E00022022902D9F0
:1055A0004568183500E000256D6845B1022902D92B
:1055B0004068183000E000204068806800E000206B
:1055C0000090D86841681A91F1684D681395CD68CC
:1055D0002695D1F80890C168239180681E90208D8F
:1055E00080B21690A08D80B22590E06B018889B2C0
:1055F0000791808880B22990208E80B22890A08E5A
:1056000080B22790D8F80C00D0E901ABE0691D907A
:10561000986980682490D8F818008068069012B1C4
:105620009069806800E000202290B069216A876854
:105630000098FFF7E0FB054619900098FFF7E4FBA0
:1056400021900098FFF7CFFB2B90606A00B9544877
:105650002799ABF101021C90491E02FB01B0289969
:10566000AAF101022A90491E02FB01A01B90D8F862
:10567000183000201968C1F3C61CC1F341522CFA3E
:1056800002FCC1F34341042901D008292DD1DA6875
:105690005AB3A1690C88032C04D9D1F8048008F10D
:1056A000240801E04FF00008D8F80480B8F1000F9A
:1056B0000BD0032C02D94868243000E00020406859
:1056C000006810B18169896800E0002180690C469A
:1056D0001A994068CDE90010996863462046FEF7A4
:1056E0005FFE211E01D0084600E006981F90079833
:1056F000C0F1000800204CE029984142C8F10000A8
:10570000002800DC0020864623982A9AA0EB080097
:10571000904200D31046279A289B12B21BB21B9CC2
:10572000CDE90E32CDE90C84CDE90A011D9BCDE90E
:10573000083E1698CDE9049ACDE906B022981E9B42
:10574000139A1A998DE80F00394600201F9B249A5E
:10575000FEF7F4FC002413E087603146DDF870C0EA
:105760002B460846139AE047139807EB80072198C9
:1057700005441998291A2B98814200DB199D641C55
:10578000B0694C45E8D3C168816025992098884468
:10579000401C269920908842AED32DB0BDE8F08FF2
:1057A0000B5F00082DE9F04F04468069BDB0018809
:1057B00009B1426800E00022526832B109B1426882
:1057C00000E000225268136800E00023012902D99A
:1057D00042680C3200E00022526842B1012902D92D
:1057E00042680C3200E000225268176800E000278F
:1057F000022902D94268183200E00022526842B100
:10580000022902D94268183200E000225268156865
:1058100000E0002502290BD9426812F1180F07D0C9
:1058200032F8186F012E03D9526812B1526800E0A5
:105830000022022902D94668183600E00026766860
:1058400046B1022902D94068183000E000204068C3
:10585000806800E000208046D86841682491F9689B
:10586000D1F804B0CE68349689682391C1682F912D
:1058700080682290208D80B21C90A08D80B22D90E7
:10588000E06B018889B20891818889B237910189DA
:1058900080891FFA81FA1FFA80F9E0693390208E1F
:1058A00080B23690A08E80B23590E86841681E9133
:1058B00080681D90206C3A90A06C3990E06C189034
:1058C000606D0168099140683890986980681A9005
:1058D000A8698068079012B19069806800E0002094
:1058E00025904046216AFFF786FA06462E904046EC
:1058F000FFF78AFA31904046FFF775FA3B90606AED
:1059000000B9BD481590A06D2A901D983599421E8A
:10591000491E02FB01001F901E983699421E491E27
:1059200002FB010022993090081A379901441C9813
:105930004944B1FBF0F0606C17902F991F98091A39
:10594000089801442D985144B1FBF0F0401C32906E
:10595000D5F818C00020DCF80010C1F3C613C1F35D
:105960004152D340C1F34341042901D008292AD12F
:10597000DCF80C203AB3A1690D88032D04D9D1F8C5
:10598000048008F1240801E04FF00008D8F80480F2
:10599000B8F1000F0BD0032D02D94868243000E085
:1059A00000204068406810B181698D6800E00025E2
:1059B000806924994068CDE900102846DCF8081079
:1059C000FEF7EEFC05B9079D1995B8693C9009985A
:1059D000002100B2CDE9201182462C90A0690188F7
:1059E000032902D94268243200E00022526842B101
:1059F000032902D94068243000E00020406805688F
:105A000000E00025E868D0F80890A8698468089844
:105A10004042E1E03298002859DD37981B99404216
:105A20004A42002A00DC00221B9B2F99C91A1F9BA7
:105A3000994200D31946359BDDF8C0801FB2369BD2
:105A4000DDF86CC01BB2CDE90E37339BCDE90CC835
:105A5000CDE90A10CDE908321CAF002097E80E000E
:105A6000CDE90621CDE90493DDE924232299CDE98E
:105A70000032CDE902B1DDE919322146FEF75EFBC5
:105A800000271BE084602946DDF854C033465A469F
:105A90000846E04731983B9906442E98301A8842D0
:105AA00000DB2E9EA86904EB8B04C168406801EB03
:105AB0008001A14201D8A4EB80047F1CA8694F4556
:105AC000E0D3C16881600AF101000FFA80FA3298D0
:105AD000401E32903CD5AA690BFB09F000FB0AF08E
